{
  "_format": "hh-sol-artifact-1",
  "contractName": "Diploma",
  "sourceName": "contracts/Diploma.sol",
  "abi": [
    {
      "inputs": [],
      "stateMutability": "nonpayable",
      "type": "constructor"
    },
    {
      "anonymous": false,
      "inputs": [
        {
          "indexed": true,
          "internalType": "address",
          "name": "studentAddress",
          "type": "address"
        },
        {
          "indexed": false,
          "internalType": "string",
          "name": "studentName",
          "type": "string"
        },
        {
          "indexed": false,
          "internalType": "string",
          "name": "specialization",
          "type": "string"
        },
        {
          "indexed": false,
          "internalType": "uint256",
          "name": "date",
          "type": "uint256"
        }
      ],
      "name": "CertificateAdded",
      "type": "event"
    },
    {
      "inputs": [
        {
          "internalType": "address",
          "name": "studentAddress",
          "type": "address"
        },
        {
          "internalType": "string",
          "name": "studentName",
          "type": "string"
        },
        {
          "internalType": "string",
          "name": "specialization",
          "type": "string"
        },
        {
          "internalType": "uint256",
          "name": "date",
          "type": "uint256"
        },
        {
          "internalType": "string",
          "name": "ipfsHash",
          "type": "string"
        }
      ],
      "name": "addCertificate",
      "outputs": [],
      "stateMutability": "nonpayable",
      "type": "function"
    },
    {
      "inputs": [
        {
          "internalType": "address",
          "name": "studentAddress",
          "type": "address"
        }
      ],
      "name": "getCertificate",
      "outputs": [
        {
          "internalType": "string",
          "name": "studentName",
          "type": "string"
        },
        {
          "internalType": "string",
          "name": "specialization",
          "type": "string"
        },
        {
          "internalType": "uint256",
          "name": "date",
          "type": "uint256"
        },
        {
          "internalType": "string",
          "name": "ipfsHash",
          "type": "string"
        },
        {
          "internalType": "bool",
          "name": "exists",
          "type": "bool"
        }
      ],
      "stateMutability": "view",
      "type": "function"
    },
    {
      "inputs": [],
      "name": "isAdmin",
      "outputs": [
        {
          "internalType": "bool",
          "name": "",
          "type": "bool"
        }
      ],
      "stateMutability": "view",
      "type": "function"
    }
  ],
  "bytecode": "0x608060405234801561001057600080fd5b5033600160006101000a81548173ffffffffffffffffffffffffffffffffffffffff021916908373ffffffffffffffffffffffffffffffffffffffff1602179055506111a8806100616000396000f3fe608060405234801561001057600080fd5b50600436106100415760003560e01c806374d0db6814610046578063b6db75a014610062578063fd531e9314610080575b600080fd5b610060600480360381019061005b91906108e1565b6100b4565b005b61006a61043e565b60405161007791906109cb565b60405180910390f35b61009a600480360381019061009591906109e6565b610496565b6040516100ab959493929190610aa1565b60405180910390f35b600160009054906101000a900473ffffffffffffffffffffffffffffffffffffffff1673ffffffffffffffffffffffffffffffffffffffff163373ffffffffffffffffffffffffffffffffffffffff1614610144576040517f08c379a000000000000000000000000000000000000000000000000000000000815260040161013b90610b7b565b60405180910390fd5b600073ffffffffffffffffffffffffffffffffffffffff168573ffffffffffffffffffffffffffffffffffffffff16036101b3576040517f08c379a00000000000000000000000000000000000000000000000000000000081526004016101aa90610be7565b60405180910390fd5b60008451116101f7576040517f08c379a00000000000000000000000000000000000000000000000000000000081526004016101ee90610c79565b60405180910390fd5b600083511161023b576040517f08c379a000000000000000000000000000000000000000000000000000000000815260040161023290610d0b565b60405180910390fd5b600081511161027f576040517f08c379a000000000000000000000000000000000000000000000000000000000815260040161027690610d9d565b60405180910390fd5b6000808673ffffffffffffffffffffffffffffffffffffffff1673ffffffffffffffffffffffffffffffffffffffff16815260200190815260200160002060040160009054906101000a900460ff161561030e576040517f08c379a000000000000000000000000000000000000000000000000000000000815260040161030590610e2f565b60405180910390fd5b6040518060a00160405280858152602001848152602001838152602001828152602001600115158152506000808773ffffffffffffffffffffffffffffffffffffffff1673ffffffffffffffffffffffffffffffffffffffff168152602001908152602001600020600082015181600001908161038b919061105b565b5060208201518160010190816103a1919061105b565b506040820151816002015560608201518160030190816103c1919061105b565b5060808201518160040160006101000a81548160ff0219169083151502179055509050508473ffffffffffffffffffffffffffffffffffffffff167feadbdbdb356299289dd1f0214584ba3fde626873e88de5992db4aa5179cab47285858560405161042f9392919061112d565b60405180910390a25050505050565b6000600160009054906101000a900473ffffffffffffffffffffffffffffffffffffffff1673ffffffffffffffffffffffffffffffffffffffff163373ffffffffffffffffffffffffffffffffffffffff1614905090565b606080600060606000806000808873ffffffffffffffffffffffffffffffffffffffff1673ffffffffffffffffffffffffffffffffffffffff1681526020019081526020016000206040518060a00160405290816000820180546104f990610e7e565b80601f016020809104026020016040519081016040528092919081815260200182805461052590610e7e565b80156105725780601f1061054757610100808354040283529160200191610572565b820191906000526020600020905b81548152906001019060200180831161055557829003601f168201915b5050505050815260200160018201805461058b90610e7e565b80601f01602080910402602001604051908101604052809291908181526020018280546105b790610e7e565b80156106045780601f106105d957610100808354040283529160200191610604565b820191906000526020600020905b8154815290600101906020018083116105e757829003601f168201915b505050505081526020016002820154815260200160038201805461062790610e7e565b80601f016020809104026020016040519081016040528092919081815260200182805461065390610e7e565b80156106a05780601f10610675576101008083540402835291602001916106a0565b820191906000526020600020905b81548152906001019060200180831161068357829003601f168201915b505050505081526020016004820160009054906101000a900460ff161515151581525050905080600001518160200151826040015183606001518460800151955095509550955095505091939590929450565b6000604051905090565b600080fd5b600080fd5b600073ffffffffffffffffffffffffffffffffffffffff82169050919050565b600061073282610707565b9050919050565b61074281610727565b811461074d57600080fd5b50565b60008135905061075f81610739565b92915050565b600080fd5b600080fd5b6000601f19601f8301169050919050565b7f4e487b7100000000000000000000000000000000000000000000000000000000600052604160045260246000fd5b6107b88261076f565b810181811067ffffffffffffffff821117156107d7576107d6610780565b5b80604052505050565b60006107ea6106f3565b90506107f682826107af565b919050565b600067ffffffffffffffff82111561081657610815610780565b5b61081f8261076f565b9050602081019050919050565b82818337600083830152505050565b600061084e610849846107fb565b6107e0565b90508281526020810184848401111561086a5761086961076a565b5b61087584828561082c565b509392505050565b600082601f83011261089257610891610765565b5b81356108a284826020860161083b565b91505092915050565b6000819050919050565b6108be816108ab565b81146108c957600080fd5b50565b6000813590506108db816108b5565b92915050565b600080600080600060a086880312156108fd576108fc6106fd565b5b600061090b88828901610750565b955050602086013567ffffffffffffffff81111561092c5761092b610702565b5b6109388882890161087d565b945050604086013567ffffffffffffffff81111561095957610958610702565b5b6109658882890161087d565b9350506060610976888289016108cc565b925050608086013567ffffffffffffffff81111561099757610996610702565b5b6109a38882890161087d565b9150509295509295909350565b60008115159050919050565b6109c5816109b0565b82525050565b60006020820190506109e060008301846109bc565b92915050565b6000602082840312156109fc576109fb6106fd565b5b6000610a0a84828501610750565b91505092915050565b600081519050919050565b600082825260208201905092915050565b60005b83811015610a4d578082015181840152602081019050610a32565b60008484015250505050565b6000610a6482610a13565b610a6e8185610a1e565b9350610a7e818560208601610a2f565b610a878161076f565b840191505092915050565b610a9b816108ab565b82525050565b600060a0820190508181036000830152610abb8188610a59565b90508181036020830152610acf8187610a59565b9050610ade6040830186610a92565b8181036060830152610af08185610a59565b9050610aff60808301846109bc565b9695505050505050565b7f5365756c206c2761646d696e697374726174657572207065757420656666656360008201527f7475657220636574746520616374696f6e000000000000000000000000000000602082015250565b6000610b65603183610a1e565b9150610b7082610b09565b604082019050919050565b60006020820190508181036000830152610b9481610b58565b9050919050565b7f41647265737365206465206c276574756469616e7420696e76616c6964650000600082015250565b6000610bd1601e83610a1e565b9150610bdc82610b9b565b602082019050919050565b60006020820190508181036000830152610c0081610bc4565b9050919050565b7f4c65206e6f6d206465206c276574756469616e74206e6520706575742070617360008201527f2065747265207669646500000000000000000000000000000000000000000000602082015250565b6000610c63602a83610a1e565b9150610c6e82610c07565b604082019050919050565b60006020820190508181036000830152610c9281610c56565b9050919050565b7f4c61207370656369616c697465206e652070657574207061732065747265207660008201527f6964650000000000000000000000000000000000000000000000000000000000602082015250565b6000610cf5602383610a1e565b9150610d0082610c99565b604082019050919050565b60006020820190508181036000830152610d2481610ce8565b9050919050565b7f4c6520686173682049504653206e65207065757420706173206574726520766960008201527f6465000000000000000000000000000000000000000000000000000000000000602082015250565b6000610d87602283610a1e565b9150610d9282610d2b565b604082019050919050565b60006020820190508181036000830152610db681610d7a565b9050919050565b7f556e2063657274696669636174206578697374652064656a6120706f7572206360008201527f6574746520616472657373650000000000000000000000000000000000000000602082015250565b6000610e19602c83610a1e565b9150610e2482610dbd565b604082019050919050565b60006020820190508181036000830152610e4881610e0c565b9050919050565b7f4e487b7100000000000000000000000000000000000000000000000000000000600052602260045260246000fd5b60006002820490506001821680610e9657607f821691505b602082108103610ea957610ea8610e4f565b5b50919050565b60008190508160005260206000209050919050565b60006020601f8301049050919050565b600082821b905092915050565b600060088302610f117fffffffffffffffffffffffffffffffffffffffffffffffffffffffffffffffff82610ed4565b610f1b8683610ed4565b95508019841693508086168417925050509392505050565b6000819050919050565b6000610f58610f53610f4e846108ab565b610f33565b6108ab565b9050919050565b6000819050919050565b610f7283610f3d565b610f86610f7e82610f5f565b848454610ee1565b825550505050565b600090565b610f9b610f8e565b610fa6818484610f69565b505050565b5b81811015610fca57610fbf600082610f93565b600181019050610fac565b5050565b601f82111561100f57610fe081610eaf565b610fe984610ec4565b81016020851015610ff8578190505b61100c61100485610ec4565b830182610fab565b50505b505050565b600082821c905092915050565b600061103260001984600802611014565b1980831691505092915050565b600061104b8383611021565b9150826002028217905092915050565b61106482610a13565b67ffffffffffffffff81111561107d5761107c610780565b5b6110878254610e7e565b611092828285610fce565b600060209050601f8311600181146110c557600084156110b3578287015190505b6110bd858261103f565b865550611125565b601f1984166110d386610eaf565b60005b828110156110fb578489015182556001820191506020850194506020810190506110d6565b868310156111185784890151611114601f891682611021565b8355505b6001600288020188555050505b505050505050565b600060608201905081810360008301526111478186610a59565b9050818103602083015261115b8185610a59565b905061116a6040830184610a92565b94935050505056fea264697066735822122017a20e240197f6a2ad24db319c68adce36caec2b4e94b414c5ba9c1c099058ba64736f6c63430008140033",
  "linkReferences": {},
  "deployedLinkReferences": {}
}